{
  "contractName": "ExerciseReward",
  "abi": [
    {
      "anonymous": false,
      "inputs": [
        {
          "indexed": true,
          "internalType": "address",
          "name": "user",
          "type": "address"
        },
        {
          "indexed": false,
          "internalType": "uint256",
          "name": "steps",
          "type": "uint256"
        },
        {
          "indexed": false,
          "internalType": "uint256",
          "name": "calories",
          "type": "uint256"
        },
        {
          "indexed": false,
          "internalType": "uint256",
          "name": "timestamp",
          "type": "uint256"
        }
      ],
      "name": "ExerciseRecorded",
      "type": "event"
    },
    {
      "anonymous": false,
      "inputs": [
        {
          "indexed": true,
          "internalType": "address",
          "name": "from",
          "type": "address"
        },
        {
          "indexed": true,
          "internalType": "address",
          "name": "to",
          "type": "address"
        },
        {
          "indexed": false,
          "internalType": "uint256",
          "name": "value",
          "type": "uint256"
        }
      ],
      "name": "Transfer",
      "type": "event"
    },
    {
      "inputs": [
        {
          "internalType": "address",
          "name": "",
          "type": "address"
        }
      ],
      "name": "balances",
      "outputs": [
        {
          "internalType": "uint256",
          "name": "",
          "type": "uint256"
        }
      ],
      "stateMutability": "view",
      "type": "function"
    },
    {
      "inputs": [
        {
          "internalType": "address",
          "name": "",
          "type": "address"
        },
        {
          "internalType": "uint256",
          "name": "",
          "type": "uint256"
        }
      ],
      "name": "exerciseRecords",
      "outputs": [
        {
          "internalType": "uint256",
          "name": "steps",
          "type": "uint256"
        },
        {
          "internalType": "uint256",
          "name": "calories",
          "type": "uint256"
        },
        {
          "internalType": "uint256",
          "name": "timestamp",
          "type": "uint256"
        }
      ],
      "stateMutability": "view",
      "type": "function"
    },
    {
      "inputs": [],
      "name": "name",
      "outputs": [
        {
          "internalType": "string",
          "name": "",
          "type": "string"
        }
      ],
      "stateMutability": "view",
      "type": "function"
    },
    {
      "inputs": [],
      "name": "symbol",
      "outputs": [
        {
          "internalType": "string",
          "name": "",
          "type": "string"
        }
      ],
      "stateMutability": "view",
      "type": "function"
    },
    {
      "inputs": [],
      "name": "totalSupply",
      "outputs": [
        {
          "internalType": "uint256",
          "name": "",
          "type": "uint256"
        }
      ],
      "stateMutability": "view",
      "type": "function"
    },
    {
      "inputs": [
        {
          "internalType": "address",
          "name": "to",
          "type": "address"
        },
        {
          "internalType": "uint256",
          "name": "value",
          "type": "uint256"
        }
      ],
      "name": "transfer",
      "outputs": [
        {
          "internalType": "bool",
          "name": "",
          "type": "bool"
        }
      ],
      "stateMutability": "nonpayable",
      "type": "function"
    },
    {
      "inputs": [
        {
          "internalType": "uint256",
          "name": "steps",
          "type": "uint256"
        },
        {
          "internalType": "uint256",
          "name": "calories",
          "type": "uint256"
        }
      ],
      "name": "recordExercise",
      "outputs": [],
      "stateMutability": "nonpayable",
      "type": "function"
    },
    {
      "inputs": [
        {
          "internalType": "address",
          "name": "user",
          "type": "address"
        }
      ],
      "name": "getExerciseRecords",
      "outputs": [
        {
          "components": [
            {
              "internalType": "uint256",
              "name": "steps",
              "type": "uint256"
            },
            {
              "internalType": "uint256",
              "name": "calories",
              "type": "uint256"
            },
            {
              "internalType": "uint256",
              "name": "timestamp",
              "type": "uint256"
            }
          ],
          "internalType": "struct ExerciseReward.Exercise[]",
          "name": "",
          "type": "tuple[]"
        }
      ],
      "stateMutability": "view",
      "type": "function"
    }
  ],
  "bytecode": "0x60806040526040518060400160405280600d81526020017f4578657263697365546f6b656e000000000000000000000000000000000000008152506003908051906020019062000051929190620000b4565b506040518060400160405280600381526020017f4558540000000000000000000000000000000000000000000000000000000000815250600490805190602001906200009f929190620000b4565b50348015620000ad57600080fd5b50620001c9565b828054620000c29062000164565b90600052602060002090601f016020900481019282620000e6576000855562000132565b82601f106200010157805160ff191683800117855562000132565b8280016001018555821562000132579182015b828111156200013157825182559160200191906001019062000114565b5b50905062000141919062000145565b5090565b5b808211156200016057600081600090555060010162000146565b5090565b600060028204905060018216806200017d57607f821691505b602082108114156200019457620001936200019a565b5b50919050565b7f4e487b7100000000000000000000000000000000000000000000000000000000600052602260045260246000fd5b610cf580620001d96000396000f3fe608060405234801561001057600080fd5b50600436106100885760003560e01c80637efcf6901161005b5780637efcf6901461012957806395d89b411461015b578063a9059cbb14610179578063fd884669146101a957610088565b806306fdde031461008d57806318160ddd146100ab57806327e235e3146100c95780634810e844146100f9575b600080fd5b6100956101c5565b6040516100a291906109a2565b60405180910390f35b6100b3610253565b6040516100c091906109e4565b60405180910390f35b6100e360048036038101906100de9190610766565b610259565b6040516100f091906109e4565b60405180910390f35b610113600480360381019061010e9190610766565b610271565b6040516101209190610965565b60405180910390f35b610143600480360381019061013e919061078f565b61032d565b604051610152939291906109ff565b60405180910390f35b610163610374565b60405161017091906109a2565b60405180910390f35b610193600480360381019061018e919061078f565b610402565b6040516101a09190610987565b60405180910390f35b6101c360048036038101906101be91906107cb565b61059e565b005b600380546101d290610bc1565b80601f01602080910402602001604051908101604052809291908181526020018280546101fe90610bc1565b801561024b5780601f106102205761010080835404028352916020019161024b565b820191906000526020600020905b81548152906001019060200180831161022e57829003601f168201915b505050505081565b60025481565b60006020528060005260406000206000915090505481565b6060600160008373ffffffffffffffffffffffffffffffffffffffff1673ffffffffffffffffffffffffffffffffffffffff168152602001908152602001600020805480602002602001604051908101604052809291908181526020016000905b8282101561032257838290600052602060002090600302016040518060600160405290816000820154815260200160018201548152602001600282015481525050815260200190600101906102d2565b505050509050919050565b6001602052816000526040600020818154811061034957600080fd5b9060005260206000209060030201600091509150508060000154908060010154908060020154905083565b6004805461038190610bc1565b80601f01602080910402602001604051908101604052809291908181526020018280546103ad90610bc1565b80156103fa5780601f106103cf576101008083540402835291602001916103fa565b820191906000526020600020905b8154815290600101906020018083116103dd57829003601f168201915b505050505081565b6000816000803373ffffffffffffffffffffffffffffffffffffffff1673ffffffffffffffffffffffffffffffffffffffff168152602001908152602001600020541015610485576040517f08c379a000000000000000000000000000000000000000000000000000000000815260040161047c906109c4565b60405180910390fd5b816000803373ffffffffffffffffffffffffffffffffffffffff1673ffffffffffffffffffffffffffffffffffffffff16815260200190815260200160002060008282546104d39190610b12565b92505081905550816000808573ffffffffffffffffffffffffffffffffffffffff1673ffffffffffffffffffffffffffffffffffffffff16815260200190815260200160002060008282546105289190610a8b565b925050819055508273ffffffffffffffffffffffffffffffffffffffff163373ffffffffffffffffffffffffffffffffffffffff167fddf252ad1be2c89b69c2b068fc378daa952ba7f163c4a11628f55a4df523b3ef8460405161058c91906109e4565b60405180910390a36001905092915050565b6000429050600160003373ffffffffffffffffffffffffffffffffffffffff1673ffffffffffffffffffffffffffffffffffffffff168152602001908152602001600020604051806060016040528085815260200184815260200183815250908060018154018082558091505060019003906000526020600020906003020160009091909190915060008201518160000155602082015181600101556040820151816002015550506000610652848461071a565b9050806000803373ffffffffffffffffffffffffffffffffffffffff1673ffffffffffffffffffffffffffffffffffffffff16815260200190815260200160002060008282546106a29190610a8b565b9250508190555080600260008282546106bb9190610a8b565b925050819055503373ffffffffffffffffffffffffffffffffffffffff167f919a9862f52632d0f80fc1b50335be0d2bbc1aea4deb2a2df2ad13ce262bff7085858560405161070c939291906109ff565b60405180910390a250505050565b60006064828461072a9190610a8b565b6107349190610ae1565b905092915050565b60008135905061074b81610c91565b92915050565b60008135905061076081610ca8565b92915050565b60006020828403121561077857600080fd5b60006107868482850161073c565b91505092915050565b600080604083850312156107a257600080fd5b60006107b08582860161073c565b92505060206107c185828601610751565b9150509250929050565b600080604083850312156107de57600080fd5b60006107ec85828601610751565b92505060206107fd85828601610751565b9150509250929050565b60006108138383610905565b60608301905092915050565b600061082a82610a46565b6108348185610a69565b935061083f83610a36565b8060005b838110156108705781516108578882610807565b975061086283610a5c565b925050600181019050610843565b5085935050505092915050565b61088681610b58565b82525050565b600061089782610a51565b6108a18185610a7a565b93506108b1818560208601610b8e565b6108ba81610c80565b840191505092915050565b60006108d2601483610a7a565b91507f496e73756666696369656e742062616c616e63650000000000000000000000006000830152602082019050919050565b60608201600082015161091b6000850182610947565b50602082015161092e6020850182610947565b5060408201516109416040850182610947565b50505050565b61095081610b84565b82525050565b61095f81610b84565b82525050565b6000602082019050818103600083015261097f818461081f565b905092915050565b600060208201905061099c600083018461087d565b92915050565b600060208201905081810360008301526109bc818461088c565b905092915050565b600060208201905081810360008301526109dd816108c5565b9050919050565b60006020820190506109f96000830184610956565b92915050565b6000606082019050610a146000830186610956565b610a216020830185610956565b610a2e6040830184610956565b949350505050565b6000819050602082019050919050565b600081519050919050565b600081519050919050565b6000602082019050919050565b600082825260208201905092915050565b600082825260208201905092915050565b6000610a9682610b84565b9150610aa183610b84565b9250827fffffffffffffffffffffffffffffffffffffffffffffffffffffffffffffffff03821115610ad657610ad5610bf3565b5b828201905092915050565b6000610aec82610b84565b9150610af783610b84565b925082610b0757610b06610c22565b5b828204905092915050565b6000610b1d82610b84565b9150610b2883610b84565b925082821015610b3b57610b3a610bf3565b5b828203905092915050565b6000610b5182610b64565b9050919050565b60008115159050919050565b600073ffffffffffffffffffffffffffffffffffffffff82169050919050565b6000819050919050565b60005b83811015610bac578082015181840152602081019050610b91565b83811115610bbb576000848401525b50505050565b60006002820490506001821680610bd957607f821691505b60208210811415610bed57610bec610c51565b5b50919050565b7f4e487b7100000000000000000000000000000000000000000000000000000000600052601160045260246000fd5b7f4e487b7100000000000000000000000000000000000000000000000000000000600052601260045260246000fd5b7f4e487b7100000000000000000000000000000000000000000000000000000000600052602260045260246000fd5b6000601f19601f8301169050919050565b610c9a81610b46565b8114610ca557600080fd5b50565b610cb181610b84565b8114610cbc57600080fd5b5056fea2646970667358221220103c371f86b40e97d85f113edf4befd409c537c7218b208009b2ed7be1abe5c364736f6c63430008000033",
  "immutableReferences": {},
  "source": "// SPDX-License-Identifier: MIT\r\npragma solidity ^0.8.0;\r\n\r\ncontract ExerciseReward {\r\n    mapping(address => uint256) public balances;\r\n    \r\n    struct Exercise {\r\n        uint256 steps;\r\n        uint256 calories;\r\n        uint256 timestamp;\r\n    }\r\n    \r\n    mapping(address => Exercise[]) public exerciseRecords;\r\n    uint256 public totalSupply;\r\n    string public name = \"ExerciseToken\";\r\n    string public symbol = \"EXT\";\r\n    \r\n    event Transfer(address indexed from, address indexed to, uint256 value);\r\n    event ExerciseRecorded(address indexed user, uint256 steps, uint256 calories, uint256 timestamp);\r\n    \r\n    function transfer(address to, uint256 value) public returns (bool) {\r\n        require(balances[msg.sender] >= value, \"Insufficient balance\");\r\n        balances[msg.sender] -= value;\r\n        balances[to] += value;\r\n        emit Transfer(msg.sender, to, value);\r\n        return true;\r\n    }\r\n    \r\n    function recordExercise(uint256 steps, uint256 calories) public {\r\n        uint256 timestamp = block.timestamp;\r\n        exerciseRecords[msg.sender].push(Exercise(steps, calories, timestamp));\r\n        uint256 reward = calculateReward(steps, calories);\r\n        balances[msg.sender] += reward;\r\n        totalSupply += reward;\r\n        emit ExerciseRecorded(msg.sender, steps, calories, timestamp);\r\n    }\r\n    \r\n    function calculateReward(uint256 steps, uint256 calories) internal pure returns (uint256) {\r\n        return (steps + calories) / 100;\r\n    }\r\n    \r\n    function getExerciseRecords(address user) public view returns (Exercise[] memory) {\r\n        return exerciseRecords[user];\r\n    }\r\n}\r\n",
  "sourcePath": "C:\\Users\\82106\\Downloads\\blockchain-exercise-rewards\\exercise-reward-app\\contracts\\ExerciseReward.sol",
  "compiler": {
    "name": "solc",
    "version": "0.8.0+commit.c7dfd78e.Emscripten.clang"
  },
  "schemaVersion": "3.4.16",
  "updatedAt": "2024-06-04T14:00:19.914Z",
  "devdoc": {
    "kind": "dev",
    "methods": {},
    "version": 1
  },
  "userdoc": {
    "kind": "user",
    "methods": {},
    "version": 1
  }
}